:0F000000780579007A007D057E007F003090053D
:10000F0030914080EC79FF800908D8F979FF8002A0
:10001F008076091138D9FB7A0011902090497A091E
:10002F001190209042DAF980E074008AF0B5F00365
:10003F007A091974FF89F0B5F00379051820902714
:10004F00DAE7227EFF80090DDDF97EFF800280381E
:10005F000E1176DEFB7F00119020910B7F0911901E
:10006F002091C6DFF980E074008FF0B5F0037F09AF
:10007F001E74FF8EF0B5F0037E051D2091ABDFE7F8
:08008F00227402D28CB58AFD37
:00000001FF
